{
  "contractName": "MetaCoin",
  "abi": [
    {
      "inputs": [],
      "payable": false,
      "stateMutability": "nonpayable",
      "type": "constructor"
    },
    {
      "anonymous": false,
      "inputs": [
        {
          "indexed": false,
          "name": "method",
          "type": "string"
        },
        {
          "indexed": true,
          "name": "_from",
          "type": "address"
        },
        {
          "indexed": true,
          "name": "_to",
          "type": "address"
        },
        {
          "indexed": false,
          "name": "_value",
          "type": "uint256"
        },
        {
          "indexed": false,
          "name": "value_from",
          "type": "uint256"
        },
        {
          "indexed": false,
          "name": "value_to",
          "type": "uint256"
        }
      ],
      "name": "Transfer",
      "type": "event"
    },
    {
      "constant": false,
      "inputs": [
        {
          "name": "amount",
          "type": "uint256"
        }
      ],
      "name": "deposit",
      "outputs": [],
      "payable": true,
      "stateMutability": "payable",
      "type": "function"
    },
    {
      "constant": false,
      "inputs": [
        {
          "name": "amount",
          "type": "uint256"
        }
      ],
      "name": "withdraw",
      "outputs": [],
      "payable": true,
      "stateMutability": "payable",
      "type": "function"
    },
    {
      "constant": false,
      "inputs": [
        {
          "name": "receiver",
          "type": "address"
        },
        {
          "name": "amount",
          "type": "uint256"
        }
      ],
      "name": "sendCoin",
      "outputs": [
        {
          "name": "sufficient",
          "type": "bool"
        }
      ],
      "payable": false,
      "stateMutability": "nonpayable",
      "type": "function"
    },
    {
      "constant": false,
      "inputs": [
        {
          "name": "receiver",
          "type": "address"
        },
        {
          "name": "amount",
          "type": "uint256"
        }
      ],
      "name": "sendEth",
      "outputs": [
        {
          "name": "sufficient",
          "type": "bool"
        }
      ],
      "payable": true,
      "stateMutability": "payable",
      "type": "function"
    },
    {
      "constant": true,
      "inputs": [
        {
          "name": "addr",
          "type": "address"
        }
      ],
      "name": "getBalanceInEth",
      "outputs": [
        {
          "name": "",
          "type": "uint256"
        }
      ],
      "payable": false,
      "stateMutability": "view",
      "type": "function"
    },
    {
      "constant": true,
      "inputs": [],
      "name": "getBalance",
      "outputs": [
        {
          "name": "",
          "type": "uint256"
        }
      ],
      "payable": false,
      "stateMutability": "view",
      "type": "function"
    },
    {
      "constant": true,
      "inputs": [
        {
          "name": "addr",
          "type": "address"
        }
      ],
      "name": "getBalance",
      "outputs": [
        {
          "name": "",
          "type": "uint256"
        }
      ],
      "payable": false,
      "stateMutability": "view",
      "type": "function"
    }
  ],
  "bytecode": "0x608060405234801561001057600080fd5b506127106000803273ffffffffffffffffffffffffffffffffffffffff1673ffffffffffffffffffffffffffffffffffffffff16815260200190815260200160002081905550610a4d806100656000396000f3fe6080604052600436106100705760003560e01c80637bd703e81161004e5780637bd703e81461013457806390b98a1114610199578063b6b55f251461020c578063f8b2cb4f1461023a57610070565b806312065fe0146100755780632e1a7d4d146100a057806349dcbc5e146100ce575b600080fd5b34801561008157600080fd5b5061008a61029f565b6040518082815260200191505060405180910390f35b6100cc600480360360208110156100b657600080fd5b81019080803590602001909291905050506102be565b005b61011a600480360360408110156100e457600080fd5b81019080803573ffffffffffffffffffffffffffffffffffffffff16906020019092919080359060200190929190505050610337565b604051808215151515815260200191505060405180910390f35b34801561014057600080fd5b506101836004803603602081101561015757600080fd5b81019080803573ffffffffffffffffffffffffffffffffffffffff1690602001909291905050506105de565b6040518082815260200191505060405180910390f35b3480156101a557600080fd5b506101f2600480360360408110156101bc57600080fd5b81019080803573ffffffffffffffffffffffffffffffffffffffff16906020019092919080359060200190929190505050610682565b604051808215151515815260200191505060405180910390f35b6102386004803603602081101561022257600080fd5b81019080803590602001909291905050506109ca565b005b34801561024657600080fd5b506102896004803603602081101561025d57600080fd5b81019080803573ffffffffffffffffffffffffffffffffffffffff1690602001909291905050506109d9565b6040518082815260200191505060405180910390f35b60003073ffffffffffffffffffffffffffffffffffffffff1631905090565b8034146102ca57600080fd5b803073ffffffffffffffffffffffffffffffffffffffff1631116102ed57600080fd5b3373ffffffffffffffffffffffffffffffffffffffff166108fc349081150290604051600060405180830381858888f19350505050158015610333573d6000803e3d6000fd5b5050565b60008273ffffffffffffffffffffffffffffffffffffffff163373ffffffffffffffffffffffffffffffffffffffff167fe6999b3085fa4d01ec2d22a2271d75b12f24ba5758e4d0ab05bd227c10d73bdf846000803373ffffffffffffffffffffffffffffffffffffffff1673ffffffffffffffffffffffffffffffffffffffff168152602001908152602001600020546000808973ffffffffffffffffffffffffffffffffffffffff1673ffffffffffffffffffffffffffffffffffffffff1681526020019081526020016000205460405180806020018581526020018481526020018381526020018281038252600f8152602001807f6265666f72652073656e644574683a000000000000000000000000000000000081525060200194505050505060405180910390a38273ffffffffffffffffffffffffffffffffffffffff166108fc839081150290604051600060405180830381858888f193505050501580156104a9573d6000803e3d6000fd5b508273ffffffffffffffffffffffffffffffffffffffff163373ffffffffffffffffffffffffffffffffffffffff167fe6999b3085fa4d01ec2d22a2271d75b12f24ba5758e4d0ab05bd227c10d73bdf846000803373ffffffffffffffffffffffffffffffffffffffff1673ffffffffffffffffffffffffffffffffffffffff168152602001908152602001600020546000808973ffffffffffffffffffffffffffffffffffffffff1673ffffffffffffffffffffffffffffffffffffffff1681526020019081526020016000205460405180806020018581526020018481526020018381526020018281038252600f8152602001807f61667465722061667465724574683a000000000000000000000000000000000081525060200194505050505060405180910390a36001905092915050565b600073__ConvertLib____________________________6396e4ee3d610603846109d9565b60026040518363ffffffff1660e01b8152600401808381526020018281526020019250505060206040518083038186803b15801561064057600080fd5b505af4158015610654573d6000803e3d6000fd5b505050506040513d602081101561066a57600080fd5b81019080805190602001909291905050509050919050565b6000816000803373ffffffffffffffffffffffffffffffffffffffff1673ffffffffffffffffffffffffffffffffffffffff1681526020019081526020016000205410156106d357600090506109c4565b8273ffffffffffffffffffffffffffffffffffffffff163373ffffffffffffffffffffffffffffffffffffffff167fe6999b3085fa4d01ec2d22a2271d75b12f24ba5758e4d0ab05bd227c10d73bdf846000803373ffffffffffffffffffffffffffffffffffffffff1673ffffffffffffffffffffffffffffffffffffffff168152602001908152602001600020546000808973ffffffffffffffffffffffffffffffffffffffff1673ffffffffffffffffffffffffffffffffffffffff168152602001908152602001600020546040518080602001858152602001848152602001838152602001828103825260078152602001807f6265666f72653a0000000000000000000000000000000000000000000000000081525060200194505050505060405180910390a3816000803373ffffffffffffffffffffffffffffffffffffffff1673ffffffffffffffffffffffffffffffffffffffff16815260200190815260200160002060008282540392505081905550816000808573ffffffffffffffffffffffffffffffffffffffff1673ffffffffffffffffffffffffffffffffffffffff168152602001908152602001600020600082825401925050819055508273ffffffffffffffffffffffffffffffffffffffff163373ffffffffffffffffffffffffffffffffffffffff167fe6999b3085fa4d01ec2d22a2271d75b12f24ba5758e4d0ab05bd227c10d73bdf846000803373ffffffffffffffffffffffffffffffffffffffff1673ffffffffffffffffffffffffffffffffffffffff168152602001908152602001600020546000808973ffffffffffffffffffffffffffffffffffffffff1673ffffffffffffffffffffffffffffffffffffffff168152602001908152602001600020546040518080602001858152602001848152602001838152602001828103825260068152602001807f61667465723a000000000000000000000000000000000000000000000000000081525060200194505050505060405180910390a3600190505b92915050565b8034146109d657600080fd5b50565b60008060008373ffffffffffffffffffffffffffffffffffffffff1673ffffffffffffffffffffffffffffffffffffffff16815260200190815260200160002054905091905056fea165627a7a72305820e0092e7a713741033db0d1447252dc5cb488b20bdad0740be5b0861684b886530029",
  "source": "pragma solidity >=0.4.21 <0.6.0;\r\n\r\nimport \"./ConvertLib.sol\";\r\n\r\n// This is just a simple example of a coin-like contract.\r\n// It is not standards compatible and cannot be expected to talk to other\r\n// coin/token contracts. If you want to create a standards-compliant\r\n// token, see: https://github.com/ConsenSys/Tokens. Cheers!\r\n\r\ncontract MetaCoin {\r\n  mapping (address => uint) balances;\r\n\r\n  event Transfer(string method, address indexed _from, address indexed _to, uint256 _value, uint256 value_from, uint256 value_to);\r\n\r\n  constructor() public {\r\n    balances[tx.origin] = 10000;\r\n  }\r\n\r\n  function deposit(uint256 amount)  public payable{\r\n    require(msg.value == amount);\r\n  }\r\n\r\n  function getBalance() public view returns (uint256) {\r\n    return address(this).balance;\r\n  }\r\n\r\n  function withdraw(uint256 amount) public payable{\r\n    require(msg.value == amount);\r\n    require(address(this).balance>amount);\r\n    msg.sender.transfer(msg.value);\r\n  }\r\n\r\n  function sendCoin(address receiver, uint amount) public returns(bool sufficient) {\r\n    if (balances[msg.sender] < amount) return false;\r\n    emit Transfer(\"before:\", msg.sender, receiver, amount, balances[msg.sender], balances[receiver]);\r\n    balances[msg.sender] -= amount;\r\n    balances[receiver] += amount;\r\n    emit Transfer(\"after:\", msg.sender, receiver, amount, balances[msg.sender], balances[receiver]);\r\n    return true;\r\n  }\r\n\r\n  function sendEth(address payable receiver, uint amount) public payable returns(bool sufficient) {\r\n    emit Transfer(\"before sendEth:\", msg.sender, receiver, amount, balances[msg.sender], balances[receiver]);\r\n    receiver.transfer(amount);\r\n    emit Transfer(\"after afterEth:\", msg.sender, receiver, amount, balances[msg.sender], balances[receiver]);\r\n    return true;\r\n  }\r\n\r\n  function getBalanceInEth(address addr) public view returns(uint){\r\n    return ConvertLib.convert(getBalance(addr),2);\r\n  }\r\n\r\n  function getBalance(address addr) public view returns(uint) {\r\n    return balances[addr];\r\n  }\r\n}\r\n",
  "sourcePath": "C:/project/eth-lightwallet/eth-lightwallet/contracts/MetaCoin.sol",
  "compiler": {
    "name": "solc",
    "version": "0.5.8+commit.23d335f2.Emscripten.clang"
  },
  "schemaVersion": "3.0.17",
  "updatedAt": "2019-11-08T21:22:22.962Z",
  "networkType": "ethereum",
  "devdoc": {
    "methods": {}
  },
  "userdoc": {
    "methods": {}
  }
}